:020000040000FA
:040000000DEF00F010
:0400080008EF32F0DB
:06001800FF0083EF32F04F
:102600000025252064652048756D656461643A2065
:10261000252E32660A0076616C6F72206865783A02
:102620002025730A0076616C6F7220696E743A20FF
:1026300025750A004154245243200D0A00415424B8
:1026400053463D004154200D0A002530347800499E
:102650004E46004E414E00696E66006E616E006C23
:0326600066000011
:10266400000E05017B6F000E7A6F42C58CF543C5E1
:102674008DF544C58EF545C58FF58FBF46EF13F034
:1026840044EF13F05CEF13F0000E7B6F010E7A6FD2
:102694008CC501F58DC502F58EC503F58FC504F50E
:1026A40082EC33F001C58CF502C58DF503C58EF5BA
:1026B40004C58FF5000E0501936F000E926FD6C509
:1026C4007EF5D7C57FF57A517B11D8A46CEF13F052
:1026D4006EEF13F075EF13F0DAA573EF13F075EFE7
:1026E40013F08FEF13F07A517B11D8A47CEF13F021
:1026F4007EEF13F084EF13F0000E616F2B0E606F0A
:1027040088EF13F0000E616F2D0E606F60C502F646
:10271400924B932B7E07D8A07F078CC501F58DC5FE
:1027240002F58EC503F58FC504F58EEC2BF001047C
:102734000210D8A4A0EF13F0A2EF13F0F9EF13F0F6
:10274400BF0E476EFF0E486E4650496E4A6A4750A8
:10275400492648504A224A500AE11A0E495CD8A038
:10276400B6EF13F0B9EF13F0010EBAEF13F0000E49
:102774000501626F636B62516311D8B4C4EF13F047
:10278400C6EF13F0D4EF13F0020E9225016E060E7D
:102794009321026E4F0E036E260E046E48EC31F048
:1027A400E0EF13F0020E9225016E060E9321026EE5
:1027B400570E036E260E046E48EC31F00501FD0E33
:1027C4007E27FF0E7F2340C513F541C514F5020E85
:1027D400156E060E166E7EC517F57FC518F54FECFF
:1027E4002EF013C540F514C541F55FEF19F08CC503
:1027F40001F58DC502F58EC503F58FC504F58EEC84
:102804002BF001500210D8A40AEF14F00CEF14F0CE
:102814004CEF14F0BF0E476EFF0E486E4650496EE3
:102824004A6A4750492648504A224A500AE11A0E39
:10283400495CD8A020EF14F023EF14F0010E24EF2C
:1028440014F0000E0501646F656B64516511D8B412
:102854002EEF14F030EF14F03EEF14F0020E922538
:10286400016E060E9321026E530E036E260E046E45
:1028740048EC31F0E0EF13F0020E9225016E060EE3
:102884009321026E5B0E036E260E046E48EC31F04B
:10289400E0EF13F0000E0501946F000E956F800EAB
:1028A400966F3F0E976F000E916F000E906F8CC560
:1028B40001F58DC502F58EC503F58FC504F5000E2F
:1028C400056E000E066E000E076E000E086EC8EC54
:1028D4002FF0D8B070EF14F072EF14F0F5EF14F09D
:1028E40091EF14F094C50FF595C510F596C511F543
:1028F40097C512F5000E136E000E146E200E156EA1
:10290400410E166EA0EC20F00FC594F510C595F598
:1029140011C596F512C597F50501904B912B8CC501
:1029240028F58DC529F58EC52AF58FC52BF5000E22
:10293400136E000E146E200E156E410E166E94C5A5
:102944000FF595C510F596C511F597C512F5A0ECD0
:1029540020F00FC52CF510C52DF511C52EF512C5A7
:102964002FF50CEC2BF0D8B0BAEF14F0BCEF14F048
:1029740074EF14F0DCEF14F094C501F595C502F57D
:1029840096C503F597C504F5000E056E000E066E98
:10299400200E076E410E086EC7EC22F001C594F5B7
:1029A40002C595F503C596F504C597F5050190078D
:1029B400D8A091078CC528F58DC529F58EC52AF5B3
:1029C4008FC52BF594C52CF595C52DF596C52EF51B
:1029D40097C52FF50CEC2BF0D8A0F3EF14F0F5EF1E
:1029E40014F0BEEF14F046C507F5086A7BEC31F02D
:1029F40007500501816F81C580F5670E8119D8A440
:102A040006EF15F008EF15F02EEF15F0D851D91197
:102A1400D8A40FEF15F011EF15F015EF15F0000E17
:102A2400D96F010ED86FD9BF22EF15F0D95106E145
:102A3400D805D8B020EF15F022EF15F028EF15F0E7
:102A4400000E7D6F060E7C6F37EF15F0D8C57CF550
:102A5400D9C57DF537EF15F0D9BF33EF15F035EF54
:102A640015F022EF15F028EF15F0670E8119D8A4A0
:102A74003EEF15F040EF15F06FEF15F091AF4EEF0C
:102A840015F0FC0E905DFF0E9159D8A04CEF15F097
:102A94004EEF15F06DEF15F0FF0E476EFF0E486E0A
:102AA4007CC549F57DC54AF54750492648504A2218
:102AB4009051495C4A50800A4B6E9151800A4B58A0
:102AC400D8A067EF15F069EF15F06DEF15F0660EFD
:102AD400806F6FEF15F0650E806F7CC572F57DC554
:102AE40073F5670E8119D8A47AEF15F07CEF15F011
:102AF4008CEF15F0660E8019D8A483EF15F085EFDE
:102B040015F08EEF15F091BF8CEF15F08AEF15F0EC
:102B14008EEF15F0724B732B660E8019D8A495EFC7
:102B240015F097EF15F0B7EF15F091BF9EEF15F084
:102B34009CEF15F0AAEF15F0000E946F000E956F40
:102B4400800E966F3F0E976F000E916F000E906F80
:102B5400670E8119D8B4B1EF15F0B3EF15F0B7EFE4
:102B640015F09051722791517323000E8B6F000E54
:102B74008A6F8CC582F58DC583F58EC584F58FC5A6
:102B840085F594C574F595C575F596C576F597C51F
:102B940077F548EF16F082C501F583C502F584C5C3
:102BA40003F585C504F594C505F595C506F596C5E3
:102BB40007F597C508F5C7EC22F001C51AF502C55B
:102BC4001BF503C51CF504C51DF503EC26F01AC559
:102BD40086F51BC587F51CC588F51DC589F586C511
:102BE40001F587C502F588C503F589C504F589ECA7
:102BF4002AF001C578F502C579F582C538F583C593
:102C040039F584C53AF585C53BF594C513F595C5E5
:102C140014F596C515F597C516F586C50FF587C540
:102C240010F588C511F589C512F5A0EC20F00FC583
:102C34003CF510C53DF511C53EF512C53FF5A9ECAF
:102C440032F038C582F539C583F53AC584F53BC5FC
:102C540085F594C501F595C502F596C503F597C5A7
:102C640004F5000E056E000E066E200E076E410E72
:102C7400086EC7EC22F001C594F502C595F503C5AD
:102C840096F504C597F505018A4B8B2B72518A5D25
:102C94008B51800A476E7351800A4758D8A055EF6C
:102CA40016F057EF16F0CDEF15F094C50FF595C556
:102CB40010F596C511F597C512F5000E136E000EAA
:102CC400146EA00E156E400E166EA0EC20F00FC50B
:102CD40086F510C587F511C588F512C589F582C535
:102CE40028F583C529F584C52AF585C52BF586C540
:102CF4002CF587C52DF588C52EF589C52FF50CEC67
:102D04002BF0D8B088EF16F08AEF16F095EF16F096
:102D1400000E0501866F000E876F000E886F000E8F
:102D2400896FBEEF16F082C501F583C502F584C52F
:102D340003F585C504F586C505F587C506F588C57B
:102D440007F589C508F5C8EC2FF0D8A0ACEF16F04C
:102D5400AEEF16F0BEEF16F0050178B1B4EF16F041
:102D6400B6EF16F0BEEF16F0000E866F000E876FFA
:102D7400000E886F000E896F8CC528F58DC529F566
:102D84008EC52AF58FC52BF586C52CF587C52DF57F
:102D940088C52EF589C52FF540EC1EF028C582F5AF
:102DA40029C583F52AC584F52BC585F582C528F583
:102DB40083C529F584C52AF585C52BF5000E136E48
:102DC400000E146E200E156E410E166E74C50FF5AE
:102DD40075C510F576C511F577C512F5A0EC20F090
:102DE4000FC52CF510C52DF511C52EF512C52FF5FF
:102DF4000CEC2BF0D8A001EF17F003EF17F02CEF39
:102E040017F00501904B912B74C50FF575C510F59E
:102E140076C511F577C512F5000E136E000E146E0B
:102E2400200E156E410E166EA0EC20F00FC574F541
:102E340010C575F511C576F512C577F5660E050151
:102E44008019D8A428EF17F02AEF17F02CEF17F009
:102E5400724B732B74C594F575C595F576C596F5C7
:102E640077C597F5650E05018019D8B43CEF17F0C6
:102E74003EEF17F044EF17F090C570F591C571F56A
:102E840048EF17F0000E716F000E706F000E6F6F39
:102E9400000E6E6F000E6D6F000E6C6F000E8B6F68
:102EA400000E8A6F43EF18F082C501F583C502F561
:102EB40084C503F585C504F594C505F595C506F5E2
:102EC40096C507F597C508F5C7EC22F001C51AF5B4
:102ED40002C51BF503C51CF504C51DF503EC26F05E
:102EE4001AC586F51BC587F51CC588F51DC589F56A
:102EF40086C501F587C502F588C503F589C504F5BE
:102F040089EC2AF001C578F502C579F50501DAB92D
:102F14008EEF17F090EF17F0ADEF17F078517911AD
:102F2400D8A497EF17F099EF17F0ADEF17F0670EED
:102F34008119D8A4A0EF17F0A2EF17F0ADEF17F0A6
:102F440071BFA9EF17F0A7EF17F0ADEF17F06C4BB7
:102F54006D2BF7EF17F06E516F11D8A4B4EF17F083
:102F6400B6EF17F0E0EF17F071BFBDEF17F0BBEF4E
:102F740017F0E0EF17F0020E9225D96E060E93219A
:102F8400DA6E2E0EDF6E924B932B7E07D8A07F074E
:102F9400000E6F6F010E6E6FE0EF17F0020E9225B8
:102FA400D96E060E9321DA6E300EDF6E924B932BA0
:102FB4007E07D8A07F076C07D8A06D076C516D11F0
:102FC400D8A4E7EF17F0E9EF17F0D0EF17F0020EEF
:102FD4009225D96E060E9321DA6E7851300FDF6E8A
:102FE400924B932B7E07D8A07F0782C538F583C503
:102FF40039F584C53AF585C53BF594C513F595C5F2
:1030040014F596C515F597C516F586C50FF587C54C
:1030140010F588C511F589C512F5A0EC20F00FC58F
:103024003CF510C53DF511C53EF512C53FF5A9ECBB
:1030340032F038C582F539C583F53AC584F53BC508
:1030440085F594C501F595C502F596C503F597C5B3
:1030540004F5000E056E000E066E200E076E410E7E
:10306400086EC7EC22F001C594F502C595F503C5B9
:1030740096F504C597F505017007D8A071078A4B2A
:103084008B2B72518A5D8B51800A476E7351800A73
:103094004758D8B050EF18F052EF18F060EF18F01E
:1030A40093BF5EEF18F0935109E14B0E925DD8A0E7
:1030B4005EEF18F060EF18F056EF17F06E516F11D5
:1030C400D8A467EF18F069EF18F07AEF18F0DAA9CE
:1030D4006EEF18F070EF18F07AEF18F0020E9225E8
:1030E400D96E060E9321DA6E2E0EDF6E924B932B61
:1030F400020E9225D96E060E9321DA6E000EDF6E53
:10310400650E8019D8A489EF18F08BEF18F0E5EF5D
:1031140013F0000E8B6F4F0E8A6F020E8A25D96E44
:10312400060E8B21DA6E000EDF6E000E7B6F000E32
:103134007A6F91BFA2EF18F0A0EF18F0AAEF18F081
:10314400000E7B6F010E7A6F906D911FD8B0912B9A
:10315400000E7D6F020E7C6FDBEF18F08A07D8A09B
:103164008B07020E8A25D96E060E8B21DA6E90C566
:1031740001F591C502F5000E046E0A0E036E70ECA3
:103184002FF00150300FDF6E90C501F591C502F5A7
:10319400000E046E0A0E036EB2EC2EF001C590F51B
:1031A40002C591F505017C07D8A07D077E07D8A04C
:1031B4007F0790519111D8A4E2EF18F0E4EF18F0D2
:1031C400B0EF18F07DBFF1EF18F07D5106E17C05FA
:1031D400D8B0EFEF18F0F1EF18F0B0EF18F08A075D
:1031E400D8A08B077A517B11D8A4FBEF18F0FDEF20
:1031F40018F003EF19F0000E676F2B0E666F07EFE0
:1032040019F0000E676F2D0E666F020E8A25D96EB7
:10321400060E8B21DA6E610098F5DFF47E07D8A0E4
:103224007F078A07D8A08B07BF0E476EFF0E486E34
:103234004650496E4A6A4750492648504A224A50E5
:103244000AE11A0E495CD8A02AEF19F02DEF19F003
:10325400010E2EEF19F0000E6A6F6B6B6A516B1141
:10326400D8A437EF19F039EF19F03FEF19F0000E39
:10327400696F650E686F43EF19F0000E696F450EB4
:10328400686F020E8A25D96E060E8B21DA6E6100F4
:10329400A0F5DFF47E07D8A07F07020E9225016E09
:1032A400060E9321026E020E8A25036E060E8B21F2
:1032B400046E48EC31F0E5EF13F01200610038F5CC
:1032C400D9F461003CF5DAF4DEC4F6F4DDC4F7F4B5
:1032D400000EF86E0800F550250AD8A474EF19F012
:1032E40076EF19F01EEF1EF0610038F5D9F4610095
:1032F4003CF5DAF4DE2A000EDD22000E0501D76F5C
:10330400000ED66FD6C5DAF5D7C5DBF5D869D9690D
:10331400000E9B6F000E9A6FDCEF19F0DA816100EA
:1033240038F5D9F461003CF5DAF4DE2A000EDD222A
:10333400DCEF19F0DA8391EF19F0DA8591EF19F0E7
:10334400DA8791EF19F0DA8991EF19F0000E9B6F8B
:10335400010E9A6FDCEF19F0610038F5D9F46100C1
:103364003CF5DAF4DEC4F6F4DDC4F7F4000EF86ECE
:103374000800F550526E536A5350000AD8B4C5EF92
:1033840019F0A8EF19F05250200AD8B4A2EF19F09E
:10339400030AD8B4A5EF19F0080AD8B49FEF19F0BE
:1033A400060AD8B490EF19F01D0AD8B49CEF19F0AE
:1033B400A8EF19F09A519B11D8B4E3EF19F0E5EF97
:1033C40019F0AEEF19F0DAA1EAEF19F0ECEF19F009
:1033D400EDEF19F0DA93610038F5D9F461003CF5AA
:1033E400DAF4DEC4F6F4DDC4F7F4000EF86E080077
:1033F400F5502A0AD8A401EF1AF003EF1AF036EFB9
:103404001AF0610038F5D9F461003CF5DAF4DE2AEB
:10341400000EDD22610040F5D9F4610044F5DAF4D0
:1034240061007CF352F5020EDE2661007CF353F555
:10343400000EDD22610048F5D9F461004CF5DAF4A0
:10344400610078F3D6F5610074F3D7F5D7BF2FEF99
:103454001AF02DEF1AF084EF1AF0DA81D66DD71F27
:10346400D8B0D72B84EF1AF0610038F5D9F4610095
:103474003CF5DAF4610078F308F5610074F309F5BA
:103484000EEC28F008C5D6F509C5D7F553EF1AF0A8
:10349400610038F5D9F461003CF5DAF4DE2A000E57
:1034A400DD22D00E526EFF0E536E610038F5D9F452
:1034B40061003CF5DAF4DEC4F6F4DDC4F7F4000E82
:1034C400F86E0800F550546E556A52505426535005
:1034D400552255500AE10A0E545CD8A074EF1AF034
:1034E40077EF1AF0010E78EF1AF0000E05019C6FC9
:1034F4009D6B9C519D11D8A482EF1AF084EF1AF0B1
:103504004AEF1AF0610038F5D9F461003CF5DAF4B9
:10351400DEC4F6F4DDC4F7F4000EF86E0800F550CE
:103524002E0AD8A498EF1AF09AEF1AF032EF1BF093
:10353400000ED96F000ED86F610038F5D9F4610020
:103544003CF5DAF4DE2A000EDD22610038F5D9F408
:1035540061003CF5DAF4DEC4F6F4DDC4F7F4000EE1
:10356400F86E0800F5502A0AD8A4BBEF1AF0BDEF94
:103574001AF0E4EF1AF0610038F5D9F461003CF573
:10358400DAF4DE2A000EDD22610040F5D9F4610090
:1035940044F5DAF461007CF352F5020EDE26610094
:1035A4007CF353F5000EDD22610048F5D9F4610087
:1035B4004CF5DAF4610078F3D8F5610074F3D9F5C9
:1035C40032EF1BF0610038F5D9F461003CF5DAF410
:1035D400610078F308F5610074F309F50EEC28F046
:1035E40008C5D8F509C5D9F501EF1BF0610038F518
:1035F400D9F461003CF5DAF4DE2A000EDD22D00EA7
:10360400526EFF0E536E610038F5D9F461003CF53B
:10361400DAF4DEC4F6F4DDC4F7F4000EF86E080044
:10362400F550546E556A52505426535055225550F5
:103634000AE10A0E545CD8A022EF1BF025EF1BF020
:10364400010E26EF1BF0000E05019E6F9F6B9E512D
:103654009F11D8A430EF1BF032EF1BF0F8EF1AF0F3
:10366400610038F5D9F461003CF5DAF4DEC4F6F40F
:10367400DDC4F7F4000EF86E0800F550076E086A12
:103684007BEC31F007500501AE6FAE51D8B44DEF6D
:103694001BF04FEF1BF099EF1BF0610038F5D9F4E4
:1036A40061003CF5DAF4610078F352F5610074F3DB
:1036B40053F5010E5226000E5322610048F5F6F42C
:1036C40061004CF5F7F4000EF86E0800F550076E33
:1036D400086A7BEC31F007500501AF6FAF51D8B4E5
:1036E40076EF1BF078EF1BF099EF1BF0610038F5D3
:1036F400D9F461003CF5DAF4610078F352F5610025
:1037040074F353F5020E5226000E5322610048F55D
:10371400F6F461004CF5F7F4000EF86E0800F5506D
:10372400076E086A7BEC31F007500501B06F660E36
:10373400AE19D8A4A0EF1BF0A2EF1BF0F3EF1BF01F
:10374400610038F5D9F461003CF5DAF4DEC4F6F42E
:10375400DDC4F7F4000EF86E08006100D4F3B1F58F
:10376400610038F5D9F461003CF5DAF4DE2A000E84
:10377400DD22610040F5D9F4610044F5DAF461001A
:103784007CF352F5040EDE2661007CF353F5000E43
:10379400DD22610048F5D9F461004CF5DAF46100EA
:1037A40078F3AAF5610078F3ABF5610078F3ACF532
:1037B400610078F3ADF54CC540F54DC541F5AAC59A
:1037C40042F5ABC543F5ACC544F5ADC545F5B1C54A
:1037D40046F532EC13F040C54CF541C54DF53FEFCD
:1037E4001EF0AE0E016E050E026E5F0E036E260E07
:1037F400046E000E066E020E056E0DEC2CF00150E8
:103804000210D8A408EF1CF00AEF1CF0A9EF1CF07A
:10381400610038F5D9F461003CF5DAF4610078F31D
:1038240052F5610074F353F5010E5226000E532233
:10383400610048F5F6F461004CF5F7F4000EF86EFB
:1038440008006100D4F3B1F5BF0E526EFF0E536E43
:10385400610038F5D9F461003CF5DAF4DEC4F6F41D
:10386400DDC4F7F4000EF86E0800F550546E556A86
:10387400525054265350552255500AE11A0E545CA6
:10388400D8A047EF1CF04AEF1CF0010E4BEF1CF0E0
:10389400000E0501A06FA16BA051A111D8B455EF82
:1038A4001CF057EF1CF07BEF1CF0610040F5D9F4DD
:1038B400610044F5DAF461007CF352F5040EDE266F
:1038C40061007CF353F5000EDD22610048F5D9F464
:1038D40061004CF5DAF4610078F3AAF5610078F33D
:1038E400ABF5610078F3ACF5610078F3ADF59DEFCD
:1038F4001CF0610040F5D9F4610044F5DAF461008C
:103904007CF352F5040EDE2661007CF353F5000EC1
:10391400DD22610048F5D9F461004CF5DAF4610068
:1039240078F3AAF5610078F3ABF5610078F3ACF5B0
:10393400610078F3ADF5020E610038F5D9F4610049
:103944003CF5DAF4DE26000EDD22DDEF1BF061002B
:1039540038F5D9F461003CF5DAF4DEC4F6F4DDC4DC
:10396400F7F4000EF86E0800F550730AD8A4BDEF02
:103974001CF0BFEF1CF0F4EF1CF0610038F5D9F433
:1039840061003CF5DAF4DE2A000EDD22610040F528
:10399400D9F4610044F5DAF461007CF352F5020EC7
:1039A400DE2661007CF353F5000EDD22610048F54C
:1039B400D9F461004CF5DAF4610078F398F561000C
:1039C40074F399F54CC50CF54DC50DF598C50EF578
:1039D40099C50FF5C4EC29F00CC54CF50DC54DF592
:1039E4003FEF1EF0610038F5D9F461003CF5DAF4DC
:1039F400DEC4F6F4DDC4F7F4000EF86E0800F550EA
:103A0400750AD8A408EF1DF00AEF1DF056EF1DF05B
:103A1400610038F5D9F461003CF5DAF4DE2A000ED1
:103A2400DD22610040F5D9F4610044F5DAF4610067
:103A34007CF352F5020EDE2661007CF353F5000E92
:103A4400DD22610048F5D9F461004CF5DAF4610037
:103A540078F354F5610074F355F554C5A2F555C5D2
:103A6400A3F50501A46BA56BA66BA76BA86BA96B4B
:103A74004CC51EF54DC51FF5A2C520F5A3C521F5FE
:103A8400A4C522F5A5C523F5A6C524F5A7C525F526
:103A9400A8C526F5A9C527F50CEC27F01EC54CF5DD
:103AA4001FC54DF53FEF1EF0610038F5D9F46100F4
:103AB4003CF5DAF4DEC4F6F4DDC4F7F4000EF86E77
:103AC4000800F550780AD8B46AEF1DF06CEF1DF0C9
:103AD40082EF1DF0610038F5D9F461003CF5DAF4A9
:103AE400DEC4F6F4DDC4F7F4000EF86E0800F550F9
:103AF400580AD8A480EF1DF082EF1DF0E0EF1DF00E
:103B0400610038F5D9F461003CF5DAF4DEC4F6F46A
:103B1400DDC4F7F4000EF86E08006100D4F3B1F5CB
:103B2400610038F5D9F461003CF5DAF4DE2A000EC0
:103B3400DD22610040F5D9F4610044F5DAF4610056
:103B44007CF352F5020EDE2661007CF353F5000E81
:103B5400DD22610048F5D9F461004CF5DAF4610026
:103B640078F354F5610074F355F554C5A2F555C5C1
:103B7400A3F50501A46BA56BA66BA76BA86BA96B3A
:103B84004CC51EF54DC51FF5A2C520F5A3C521F5ED
:103B9400A4C522F5A5C523F5A6C524F5A7C525F515
:103BA400A8C526F5A9C527F5B1C528F594EC24F0D8
:103BB4001EC54CF51FC54DF53FEF1EF0610038F5ED
:103BC400D9F461003CF5DAF4DEC4F6F4DDC4F7F4AC
:103BD400000EF86E0800F550250AD8A4F4EF1DF085
:103BE400F6EF1DF00FEF1EF0610038F5D9F4610017
:103BF4003CF5DAF4DE2A000EDD22000E046E250EFA
:103C0400036E4CC505F54DC506F57BEC2DF0000E95
:103C14004D6E010E4C6E3FEF1EF0610038F5D9F485
:103C240061003CF5DAF4DE2A000EDD22000E4D6E52
:103C3400000E4C6E3FEF1EF0610038F5D9F46100C0
:103C44003CF5DAF4DEC4F6F4DDC4F7F4000EF86EE5
:103C54000800F550036E046A4CC505F54DC506F51C
:103C64007BEC2DF0610038F5D9F461003CF5DAF411
:103C7400DE2A000EDD2209EF1EF012002B50800B0D
:103C8400346E2B502B24366E2AAE4BEF1EF04DEFC4
:103C94001EF04EEF1EF036803650D8B454EF1EF0AE
:103CA40056EF1EF06BEF1EF03628D8A45CEF1EF022
:103CB4005EEF1EF066EF1EF0000E286E000E296EF9
:103CC400000E2A6E000E2B6E2A8E000E2B6E73EFE2
:103CD4001EF0000E286E000E296E000E2A6E000ED5
:103CE4002B6E2F50800B356E34503518D8B47DEFC1
:103CF4001EF07FEF1EF080EF1EF0348C2F502F2427
:103D0400356E2EAE88EF1EF08AEF1EF08BEF1EF09C
:103D140035803550D8B491EF1EF093EF1EF0A8EF24
:103D24001EF03528D8A499EF1EF09BEF1EF0A3EFE8
:103D34001EF0000E2C6E000E2D6E000E2E6E000E68
:103D44002F6E2E8E000E2F6EB0EF1EF0000E2C6E16
:103D5400000E2D6E000E2E6E000E2F6E3650355C4A
:103D6400D8B0B7EF1EF0B9EF1EF0E0EF1EF034ACA0
:103D7400BEEF1EF0C0EF1EF0C2EF1EF0800E341A2C
:103D840036C537F535C536F537C535F528C537F5A4
:103D94002CC528F537C52CF529C537F52DC529F5CA
:103DA40037C52DF52AC537F52EC52AF537C52EF5A5
:103DB4002BC537F52FC52BF537C52FF5000E376EFC
:103DC400365035C530F5316A305E000E315A31BE99
:103DD400F5EF1EF0315009E11A0E305CD8A0F5EF72
:103DE4001EF0F7EF1EF02EEF1FF0285029102A10B6
:103DF4002B10D8A400EF1FF003EF1FF0010E04EF07
:103E04001FF0000E376E000E286E000E296E000E95
:103E14002A6E000E2B6E35C536F537EF1FF037A02E
:103E240016EF1FF018EF1FF01EEF1FF0D890373079
:103E34000109376E20EF1FF0D890373228A025EF04
:103E44001FF027EF1FF028EF1FF0378E2B342B3293
:103E54002A3229322832362A3550365CD8A035EF3A
:103E64001FF037EF1FF011EF1FF034BC3CEF1FF0D1
:103E74003EEF1FF07EEF1FF03650D8A444EF1FF042
:103E840046EF1FF050EF1FF0000E286E000E296E53
:103E9400000E2A6E000E2B6E9FEF20F02C50282669
:103EA4002D5029222E502A222F502B222BA05DEF99
:103EB4001FF05FEF1FF00BEF20F037A064EF1FF04F
:103EC40066EF1FF06CEF1FF0D89037300109376EA2
:103ED4006EEF1FF0D890373228A073EF1FF075EF04
:103EE4001FF076EF1FF0378E2B342B322A32293213
:103EF4002832362A0BEF20F02C50285C2D502958FC
:103F04002E502A582B50800A306E2F50800A305879
:103F1400D8B08FEF1FF091EF1FF0BCEF1FF02850C7
:103F24002C5C306E29502D58316E2A502E58326E2A
:103F34002B502F58336EFF0E3024286EFF0E312085
:103F4400296EFF0E32202A6EFF0E33202B6E800E58
:103F5400341A376C3750D8A4B2EF1FF0B4EF1FF007
:103F6400C4EF1FF0010E2826000E29222A222B223C
:103F7400C4EF1FF02C50285E2D50295A2E502A5A77
:103F84002F502B5A285029102A102B10D8A4CDEFCB
:103F94001FF0CFEF1FF004EF20F03750D8A4D5EF77
:103FA4001FF0D7EF1FF004EF20F0000E286E000E74
:103FB400296E000E2A6E000E2B6E9FEF20F0D89013
:103FC400283629362A362B3637AEEBEF1FF0EDEFC5
:103FD4001FF0EEEF1FF0288037A0F3EF1FF0F5EF8E
:103FE4001FF0F9EF1FF0D8803736FBEF1FF0D890A1
:103FF40037363650D8B401EF20F003EF20F004EF49
:1040040020F036062AAE09EF20F00BEF20F0E1EFA6
:104014001FF0000E356E37AE12EF20F014EF20F0D3
:104024002CEF20F037C530F57F0E3016D8B41DEFD5
:1040340020F01FEF20F023EF20F0010E356E2CEF5F
:1040440020F028A028EF20F02AEF20F02CEF20F019
:104054001FEF20F03550D8B432EF20F034EF20F0C9
:104064005FEF20F0010E2826000E29222A222B229F
:104074002BA03FEF20F041EF20F05FEF20F028C5A8
:1040840030F529C531F52AC532F52BC533F533345E
:10409400333232323132303230C528F531C529F568
:1040A40032C52AF533C52BF53628D8B45CEF20F099
:1040B4005EEF20F05FEF20F0362A3628D8B465EFA3
:1040C40020F067EF20F06FEF20F03650D8A46DEFAA
:1040D40020F06FEF20F081EF20F0000E286E000E2C
:1040E400296E000E2A6E000E2B6E3650D8A47DEF7A
:1040F40020F07FEF20F081EF20F0000E346E36A028
:1041040086EF20F088EF20F08BEF20F02A8E8CEFE2
:1041140020F02A9ED89036302B6E34AE94EF20F0E7
:1041240096EF20F097EF20F02B8E28C528F529C5AF
:1041340029F52AC52AF52BC52BF512001250800B40
:104144001B6E12501224216E11AEABEF20F0ADEFB6
:1041540020F0AEEF20F021802150D8B4B4EF20F04D
:10416400B6EF20F0C9EF20F02128D8A4BCEF20F04E
:10417400BEEF20F0C6EF20F0000E0F6E000E106EA2
:10418400000E116E000E126E118ED1EF20F0000E93
:104194000F6E000E106E000E116E000E126E165091
:1041A400800B1B1A16501624206E15AEDCEF20F07F
:1041B400DEEF20F0DFEF20F020802050D8B4E5EFD0
:1041C40020F0E7EF20F0FAEF20F02028D8A4EDEF5C
:1041D40020F0EFEF20F0F7EF20F0000E136E000E4A
:1041E400146E000E156E000E166E158E02EF21F081
:1041F400000E136E000E146E000E156E000E166E79
:104204002050D8B408EF21F00AEF21F012EF21F08A
:104214002150D8A410EF21F012EF21F01CEF21F06F
:10422400000E0F6E000E106E000E116E000E126E58
:10423400C6EF22F015500F026100CCF326F56100A1
:10424400D0F327F526501C6E1D6A1E6A1F6A27507C
:10425400226E236A246A256A145010026100CCF38A
:1042640026F56100D0F327F526501C26000E1D22EA
:104274001E221F2227502226000E2322242225221A
:10428400135011026100CCF326F56100D0F327F539
:1042940026501C26000E1D221E221F2227502226D5
:1042A400000E2322242225221EC51FF51DC51EF53E
:1042B4001CC51DF51C6A135010026100CCF326F5D1
:1042C4006100D0F327F526501C2627501D22000E2E
:1042D4001E22000E1F2214500F026100CCF326F59B
:1042E4006100D0F327F526501C2627501D22000E0E
:1042F4001E22000E1F221EC51FF51DC51EF51CC55E
:104304001DF51C6A13500F026100CCF326F5610001
:10431400D0F327F526501C2627501D22000E1E22FE
:10432400000E1F22155010026100CCF326F5610027
:10433400D0F327F52650222627502322000E2422CC
:10434400000E2522145011026100CCF326F5610001
:10435400D0F327F52650222627502322000E2422AC
:10436400000E2522155011026100CCF326F56100E0
:10437400D0F327F52650176E2750186E196A1A6A5B
:1043840019C51AF518C519F517C518F5176A175080
:10439400222618502322195024221A5025221CC5E3
:1043A40017F51DC518F51EC519F51FC51AF5190E03
:1043B400E1EF21F0D8901A32193218321732E82E70
:1043C400DCEF21F017502226185023221950242202
:1043D4001A5025221EC51FF51DC51EF51CC51DF549
:1043E4001C6A205021C517F5186A1726000E1822DA
:1043F400820E1724266EFF0E1820276E17EF22F068
:10440400D89022362336243625361FAE0CEF22F000
:104414000EEF22F00FEF22F02280D8901C361D36CA
:104424001E361F362606D8A0270624AE1CEF22F01F
:104434001EEF22F002EF22F0000E206E1FAE25EFD9
:1044440022F027EF22F04BEF22F0FF0E1C14176E20
:10445400FF0E1D14186EFF0E1E14196E7F0E1F140E
:104464001A6E1750181019101A10D8B43CEF22F015
:104474003EEF22F042EF22F0010E206E4BEF22F0CD
:1044840022A047EF22F049EF22F04BEF22F03EEF5B
:1044940022F02050D8B451EF22F053EF22F077EFFE
:1044A40022F0010E2226000E23222422252225A0FA
:1044B4005EEF22F060EF22F077EF22F022C517F5CD
:1044C40023C518F524C519F525C51AF51A341A3269
:1044D40019321832173217C522F518C523F519C534
:1044E40024F51AC525F5264A272A27BE82EF22F08D
:1044F400275008E12628D8A082EF22F084EF22F08A
:104504008EEF22F0000E226E000E236E800E246EBB
:104514007F0E256EBCEF22F027BE9BEF22F02750C2
:1045240006E12604D8B099EF22F09BEF22F0A7EF22
:1045340022F0000E226E000E236E000E246E000E7A
:10454400256E000E1B6EBCEF22F026C521F5FF0E72
:104554002216FF0E23167F0E2416000E251621A008
:10456400B6EF22F0B8EF22F0B9EF22F0248ED89003
:104574002130256E1B50251222C50FF523C510F5D9
:1045840024C511F525C512F512000450800B116ED7
:1045940004500424186E03AED2EF22F0D4EF22F0BC
:1045A400D5EF22F018801850D8B4DBEF22F0DDEFFD
:1045B40022F0F2EF22F01828D8A4E3EF22F0E5EF7E
:1045C40022F0EDEF22F0000E016E000E026E000EDE
:1045D400036E000E046E038E000E046EFAEF22F0DA
:1045E400000E016E000E026E000E036E000E046ECD
:1045F4000850800B111A08500824196E07AE05EFF5
:1046040023F007EF23F008EF23F019801950D8B4F2
:104614000EEF23F010EF23F025EF23F01928D8A490
:1046240016EF23F018EF23F020EF23F0000E056EB1
:10463400000E066E000E076E000E086E078E000E4A
:10464400086E2DEF23F0000E056E000E066E000EB0
:10465400076E000E086E0550061007100810D8A447
:1046640036EF23F038EF23F050EF23F0000E016E05
:10467400000E026E000E036E000E046E800E031216
:104684007F0E04121150041201C501F502C502F592
:1046940003C503F504C504F593EF24F01850D8A41A
:1046A40056EF23F058EF23F062EF23F0000E016E73
:1046B400000E026E000E036E000E046E93EF24F0E3
:1046C400195018C509F50A6A095E000E0A5A7F0EC8
:1046D4000924126E000E0A20136E01C50DF502C5E1
:1046E4000EF503C50FF504C510F5000E016E000E9E
:1046F400026E000E036E000E046E000E146E000EA9
:10470400156E000E166E000E176E000E196EC3EFB6
:1047140023F01950D8B491EF23F093EF23F0AAEFCC
:1047240023F0D8900D360E360F361036D890013659
:1047340002360336043617AEA2EF23F0A4EF23F0BB
:10474400A5EF23F00180D8901436153616361736A7
:1047540005500D5C06500E5807500F58085010585D
:10476400D8A0B7EF23F0B9EF23F0C2EF23F0178CF2
:1047740005500D5E06500E5A07500F5A0850105A35
:10478400192A190E1964C9EF23F0CBEF23F08BEF2C
:1047940023F00D500E100F101010D8B4D4EF23F0E6
:1047A400D6EF23F0EEEF23F01480EEEF23F0D89051
:1047B400013602360336043617AEE3EF23F0E5EF95
:1047C40023F0E6EF23F00180D89014361536163620
:1047D40017361206D8A0130603AEF3EF23F0F5EF55
:1047E40023F0D9EF23F0000E196E17AEFCEF23F07F
:1047F400FEEF23F022EF24F0FF0E1414096EFF0ED7
:1048040015140A6EFF0E16140B6E7F0E17140C6E21
:1048140009500A100B100C10D8B413EF24F015EF44
:1048240024F019EF24F0010E196E22EF24F001A0F8
:104834001EEF24F020EF24F022EF24F015EF24F0F3
:104844001950D8B428EF24F02AEF24F04EEF24F0C6
:10485400010E0126000E02220322042204A035EFD9
:1048640024F037EF24F04EEF24F001C509F502C51A
:104874000AF503C50BF504C50CF50C340C320B32E8
:104884000A32093209C501F50AC502F50BC503F55B
:104894000CC504F5124A132A13BE59EF24F0135021
:1048A40008E11228D8A059EF24F05BEF24F066EF5A
:1048B40024F0000E136E1268000E016E000E026EDC
:1048C400000E036E000E046E13BE73EF24F013503B
:1048D40006E11204D8B071EF24F073EF24F081EFF5
:1048E40024F0000E136E000E126E000E016E000E08
:1048F400026E000E036E000E046E000E116E12C5E1
:1049040018F518A088EF24F08AEF24F08DEF24F036
:10491400038E8EEF24F0039ED8901830046E44EF7B
:1049240023F012000501D9BF9AEF24F09CEF24F084
:104934009DEF24F0DA93D9BFAAEF24F0D95106E110
:10494400D805D8B0A8EF24F0AAEF24F0B0EF24F0F3
:10495400000E366E010E356EB4EF24F0D8C535F571
:10496400D9C536F5D6C537F5D7C538F5DAA9BDEFBB
:1049740024F0BFEF24F0C3EF24F0FE0E3726FF0E21
:10498400382220C539F521C53AF522C53BF523C5A2
:104994003CF524C53DF525C53EF526C53FF527C59F
:1049A40040F5000E426E4F0E416E000E0601516F2F
:1049B40090EF25F04106D8A042060F0E3914436E3D
:1049C400446A44BEEFEF24F0445009E10A0E435C0C
:1049D400D8A0EFEF24F0F1EF24F0F9EF24F0570E14
:1049E4004324436E000E4420446EFFEF24F0300E47
:1049F4004324436E000E4420446EBF0E296EFF0E06
:104A04002A6E28502B6E2C6A29502B262A502C22D1
:104A14002C500AE11A0E2B5CD8A013EF25F016EFE8
:104A240025F0010E17EF25F0000E316E326A315079
:104A34003210D8B420EF25F022EF25F052EF25F004
:104A44009F0E296EFF0E2A6E200E43102B6E000E51
:104A540044102C6E29502B262A502C222C500AE16B
:104A64001A0E2B5CD8A039EF25F03CEF25F0010E8F
:104A74003DEF25F0000E336E346A33503410D8B451
:104A840046EF25F048EF25F052EF25F043C507F532
:104A940044C508F5ABEC31F007C543F508C544F54A
:104AA400020E4124D96E060E4220DA6E61000CF526
:104AB400DFF43506D8A036063706D8A0380639C53F
:104AC40029F53AC52AF53BC52BF53CC52CF53DC562
:104AD4002DF53EC52EF53FC52FF540C530F5050E25
:104AE4007DEF25F0D89030322F322E322D322C32F9
:104AF4002B322A322932E82E74EF25F029C539F5F4
:104B04002AC53AF52BC53BF52CC53CF52DC53DF51D
:104B14002EC53EF52FC53FF530C540F542BE9CEF8E
:104B240025F0425009E1020E415CD8A09CEF25F02B
:104B34009EEF25F0CFEF25F039503A103B103C1092
:104B44003D103E103F104010D8A4ABEF25F0ADEF60
:104B540025F0DCEF24F036BEBAEF25F0365006E13E
:104B64003504D8B0B8EF25F0BAEF25F0DCEF24F027
:104B740038BEC5EF25F0385008E13704D8A0C5EF9A
:104B840025F0C7EF25F0CFEF25F00501DAB3CDEF1F
:104B940025F0CFEF25F0DCEF24F00501DAA9D5EFFD
:104BA40025F0D7EF25F0EEEF25F04106D8A0420618
:104BB400020E4124D96E060E4220DA6E6100A0F482
:104BC400DFF44106D8A04206020E4124D96E060E37
:104BD4004220DA6E300EDF6E1EC513F51FC514F5C4
:104BE400020E4124156E060E4220166E37C517F5C7
:104BF40038C518F54FEC2EF013C51EF514C51FF576
:104C04001200CCC52AF5CDC52BF5CEC52CF5CFC5E4
:104C14002DF51AC52AF51BC52BF51CC52CF51DC58C
:104C24002DF5810E1E6EFF0E1F6E2AC520F52BC5B5
:104C340021F52CC522F52DC523F5180E27EF26F0F6
:104C4400D8902332223221322032E82E22EF26F06D
:104C540020501E24286E000E1F20296E29BE3CEF12
:104C640026F0295009E1170E285CD8A03CEF26F065
:104C74003EEF26F048EF26F01AC51AF51BC51BF5C2
:104C84001CC51CF51DC51DF50BEF27F029BE4DEF06
:104C940026F04FEF26F0BFEF26F028C51EF5FF0ED5
:104CA4001F6EFF0E206E7F0E216E000E226E1E669A
:104CB4005EEF26F066EF26F02234223221322032D3
:104CC4001F321E2E59EF26F01FC524F520C525F5E9
:104CD40021C526F522C527F524502A141E6E255019
:104CE4002B141F6E26502C14206E27502D14216E69
:104CF4001E501F1020102110D8A483EF26F085EF3A
:104D040026F087EF26F03EEF26F02AC51EF52BC5C8
:104D14001FF52CC520F52DC521F5200E97EF26F0A3
:104D2400D890213220321F321E32E82E92EF26F024
:104D34001E501F1020102110D8B4A3EF26F0A5EFA9
:104D440026F0ADEF26F024502A2625502B2226509B
:104D54002C2227502D22241C1E6E251C1F6E261C5F
:104D6400206E271C216E1E502A161F502B16205011
:104D74002C1621502D1603EF27F02AC51EF52BC53E
:104D84001FF52CC520F52DC521F5200ECFEF26F0FB
:104D9400D890213220321F321E32E82ECAEF26F07C
:104DA4001E501F1020102110D8A4DBEF26F0DDEFD9
:104DB40026F0E7EF26F0000E2A6E000E2B6E000E92
:104DC4002C6E000E2D6E03EF27F0D8902A341E6E41
:104DD4002B341F6E2C34206E2D34216E1E501F1068
:104DE40020102110D8B4F9EF26F0FBEF26F003EFE2
:104DF40027F0000E2A6E000E2B6E800E2C6EBF0E56
:104E04002D6E2AC51AF52BC51BF52CC51CF52DC511
:104E14001DF512000501D9BF12EF27F014EF27F09A
:104E240015EF27F0DA93D9BF22EF27F0D95106E125
:104E3400D805D8B020EF27F022EF27F028EF27F08D
:104E4400000E316E010E306E2CEF27F0D8C530F510
:104E5400D9C531F5D6C532F5D7C533F520C534F5F6
:104E640021C535F522C536F523C537F524C538F5F2
:104E740025C539F526C53AF527C53BF5000E3D6E27
:104E84004F0E3C6E000E0601516FBFEF27F03C063B
:104E9400D8A03D06020E3C24D96E060E3D20DA6EE3
:104EA40034C501F535C502F536C503F537C504F536
:104EB40038C505F539C506F53AC507F53BC508F506
:104EC4000A0E096E000E0A6E000E0B6E000E0C6EBA
:104ED400000E0D6E000E0E6E000E0F6E000E106EA4
:104EE400E7EC2DF001C528F502C529F503C52AF51F
:104EF40004C52BF505C52CF506C52DF507C52EF5FE
:104F040008C52FF52850300FDF6E3006D8A03106C3
:104F14003206D8A0330634C501F535C502F536C5C9
:104F240003F537C504F538C505F539C506F53AC5A1
:104F340007F53BC508F50A0E096E000E0A6E000E51
:104F44000B6E000E0C6E000E0D6E000E0E6E000E3B
:104F54000F6E000E106E03EC2DF001C534F502C582
:104F640035F503C536F504C537F505C538F506C569
:104F740039F507C53AF508C53BF53C503D10D8B4A2
:104F8400C6EF27F0C8EF27F0F9EF27F034503510BB
:104F940036103710381039103A103B10D8A4D5EF1A
:104FA40027F0D7EF27F049EF27F031BEE4EF27F0E1
:104FB400315006E13004D8B0E2EF27F0E4EF27F0F7
:104FC40049EF27F033BEEFEF27F0335008E1320406
:104FD400D8A0EFEF27F0F1EF27F0F9EF27F0050164
:104FE400DAB3F7EF27F0F9EF27F049EF27F01EC502
:104FF40013F51FC514F5020E3C24156E060E3D2054
:10500400166E32C517F533C518F54FEC2EF013C5DF
:105014001EF514C51FF51200000E166E000E156E57
:10502400000E0F6E000E0E6E1AEF28F0084A092AC1
:10503400010E146E610020F4F6F4610024F4F7F418
:10504400000EF86E0800F550200AD8B42CEF28F0B2
:105054002EEF28F04FEF28F0F70E0A6EFF0E0B6EBE
:10506400610020F4F6F4610024F4F7F4000EF86E05
:105074000800F5500C6E0D6A0A500C260B500D22D8
:105084000D5009E1050E0C5CD8A04BEF28F04DEF54
:1050940028F04FEF28F0000E146E14C510F5116AB5
:1050A40010501110D8A459EF28F05BEF28F018EF36
:1050B40028F065EF28F0000E0F6E010E0E6E084A00
:1050C400092AA2EF28F0610020F4F6F4610024F428
:1050D400F7F4000EF86E0800F5500A6E0B6A0B50D8
:1050E400000AD8B478EF28F0A2EF28F00A502B0A6F
:1050F400D8B461EF28F0060AD8B45DEF28F0A2EF27
:1051040028F015C501F516C502F5000E046E0A0E49
:10511400036E03EC34F0610020F4F6F4610024F42F
:10512400F7F4000EF86E0800F550015E000E025A06
:10513400300E0124156E000E0220166E61EF28F069
:10514400D00E0A6EFF0E0B6E610020F4F6F46100BF
:1051540024F4F7F4000EF86E0800F5500C6E0D6A96
:105164000A500C260B500D220D500AE10A0E0C5C5D
:10517400D8A0BFEF28F0C2EF28F0010EC3EF28F04B
:10518400000E126E136A12501310D8A4CCEF28F03C
:10519400CEEF28F083EF28F00E500F10D8A4D5EFEF
:1051A40028F0D7EF28F0E5EF28F015C50AF516C565
:1051B4000BF50A1E0B1E0A4A0B2A0AC508F50BC575
:1051C40009F5E9EF28F015C508F516C509F512002B
:1051D400096E0950D8B4F1EF28F0F3EF28F015EF79
:1051E40029F004BEFAEF28F0F8EF28F015EF29F0C3
:1051F40001C505F502C506F503C507F504C508F59F
:10520400051E061E071E081E052A000E062207227A
:10521400082205C50BF506C50CF507C50DF508C52F
:105224000EF51DEF29F001C50BF502C50CF503C5FC
:105234000DF504C50EF50150021003100410D8A496
:1052440026EF29F028EF29F032EF29F0000E016E45
:10525400000E026E000E036E000E046EC3EF29F002
:10526400960E0A6E3CEF29F00A2AD8900E320D32BF
:105274000C320B32000E0B14056E000E0C14066E6D
:10528400000E0D14076EFE0E0E14086E0550061067
:1052940007100810D8A451EF29F053EF29F036EF86
:1052A40029F061EF29F00A2A010E0B26000E0C22C8
:1052B4000D220E22D8900E320D320C320B32000E1B
:1052C4000B14056E000E0C14066E000E0D14076E02
:1052D400FF0E0E14086E0550061007100810D8A40F
:1052E40076EF29F078EF29F055EF29F080EF29F0D7
:1052F4000A06D8900B360C360D360E360DBE85EFE9
:1053040029F087EF29F08FEF29F0020E0A608DEF64
:1053140029F08FEF29F07AEF29F00AB094EF29F001
:1053240096EF29F097EF29F00D9ED8900A320AC51E
:1053340005F5066A076A086A05C508F5076A066A74
:10534400056A05500B1206500C1207500D12085036
:105354000E120950D8B4B1EF29F0B3EF29F0BBEF26
:1053640029F004BEBAEF29F0B8EF29F0BBEF29F019
:105374000E8E0BC501F50CC502F50DC503F50EC562
:1053840004F5120021EEDCF111EE11F1060EDBC47E
:10539400E3F4E806FCE20EC51CF50FC51DF51C5030
:1053A4001D10D8A4D8EF29F0DAEF29F0DEEF29F0A8
:1053B400110E1C6E050E1D6E1CC501F51DC502F5F2
:1053C4002DEC33F001C520F502C521F5D8C51EF535
:1053D400D9C51FF51FBEF1EF29F0F3EF29F008EF4F
:1053E4002AF020501E5C1F50800A106E2150800A43
:1053F4001058D8A000EF2AF002EF2AF004EF2AF0A8
:1054040008EF2AF01EC520F51FC521F520C51EF59D
:1054140021C51FF5D6C51AF5D7C51BF50501DAB1A7
:1054240016EF2AF018EF2AF035EF2AF026EF2AF0CB
:10543400000E046E200E036E0CC505F50DC506F5B1
:105444007BEC2DF0204A212A1A50205C2150800A3E
:10545400106E1B50800A1058D8A033EF2AF035EF95
:105464002AF01AEF2AF0000E196E000E186E50EF93
:105474002AF0610070F4D9F4610074F4DAF4DF50B6
:10548400106E1050036E046A0CC505F50DC506F5C3
:105494007BEC2DF01C4A1D2A184A192A1E50185C50
:1054A4001950800A106E1F50800A1058D8A05DEF62
:1054B4002AF05FEF2AF03BEF2AF00501DAA165EF4D
:1054C4002AF067EF2AF084EF2AF075EF2AF0000E35
:1054D400046E200E036E0CC505F50DC506F57BECB8
:1054E4002DF0204A212A1A50205C2150800A106E87
:1054F4001B50800A1058D8A082EF2AF084EF2AF0BB
:1055040069EF2AF020C50CF521C50DF5120003340E
:1055140004340A6E0A50D8A492EF2AF094EF2AF0C9
:105524009EEF2AF0000E016E000E026E000E036E56
:10553400000E046E0BEF2BF001C505F502C506F550
:1055440003C507F504C508F5200EAEEF2AF0D89080
:105554000832073206320532E82EA9EF2AF0055048
:10556400096E038EFF0E0116FF0E0216FF0E0316C0
:10557400000E0416960E0A5E0ABEC5EF2AF0C3EFAB
:105584002AF0DBEF2AF00A50800A970FD8B0CDEF4B
:105594002AF0CFEF2AF0D1EF2AF094EF2AF0D89036
:1055A40004320332023201320A3ED1EF2AF0F3EF21
:1055B4002AF01F0E0A64E1EF2AF0E3EF2AF0EBEF82
:1055C4002AF094EF2AF0D8900136023603360436D6
:1055D4000A060A50D8A4F1EF2AF0F3EF2AF0E5EF17
:1055E4002AF00950D8B4F9EF2AF0FBEF2AF003EFC0
:1055F4002BF0041E031E021E016C000E0222032265
:10560400042201C501F502C502F503C503F504C56D
:1056140004F51200000E2814306E000E2914316EA9
:10562400800E2A14326E7F0E2B14336E30503110DC
:1056340032103310D8A421EF2BF023EF2BF02BEFF3
:105644002BF0000E286E000E296E000E2A6E000E3E
:105654002B6E000E2C14306E000E2D14316E800E45
:105664002E14326E7F0E2F14336E305031103210E0
:105674003310D8A440EF2BF042EF2BF04AEF2BF07D
:10568400000E2C6E000E2D6E000E2E6E000E2F6E70
:105694002BAE4FEF2BF051EF2BF05AEF2BF0286C81
:1056A400291ED8B0292A2A1ED8B02A2A800E2B56A1
:1056B4002FAE5FEF2BF061EF2BF06AEF2BF02C6C29
:1056C4002D1ED8B02D2A2E1ED8B02E2A800E2F566D
:1056D400000E281A000E291A000E2A1A800E2B1A00
:1056E400000E2C1A000E2D1A000E2E1A800E2F1AE0
:1056F4002C50285C2D5029582E502A582F502B58A6
:10570400D8B087EF2BF089EF2BF08CEF2BF0D890EB
:105714008DEF2BF0D8801200D0C50BF5D1C50CF558
:10572400D2C50DF5D3C50EF501C50BF502C50CF5B3
:1057340003C50DF504C50EF50BC505F50CC506F539
:105744000DC507F50EC508F5180EAEEF2BF0D89071
:105754000832073206320532E82EA9EF2BF0055045
:10576400096E0A6A09500A10D8A4BBEF2BF0BDEFEA
:105774002BF0DDEF2BF0D8900B34056E0C34066E55
:105784000D34076E0E34086E05500610071008100D
:10579400D8A4CFEF2BF0D1EF2BF0D7EF2BF0000EE6
:1057A400026E020E016E0CEF2CF0000E026E030E60
:1057B400016E0CEF2CF009280A10D8A4E4EF2BF0AA
:1057C400E6EF2BF008EF2CF00BC505F50CC506F53C
:1057D4000DC507F50EC508F5090ED8900536063631
:1057E40007360836E82EEFEF2BF0055006100710A9
:1057F4000810D8B400EF2CF003EF2CF0010E04EFE6
:105804002CF0000E016E026A0CEF2CF0000E026EFA
:10581400040E016E120001C508F502C509F503C5A1
:105824000AF504C50BF50506D8A00606052806E109
:105834000628D8A420EF2CF022EF2CF02FEF2CF028
:10584400000E026E000E016E89EF2CF0084A092A40
:105854000A4A0B2A0506D8A00606610020F4D9F4EA
:10586400610024F4DAF4DF50D8B43BEF2CF03DEFC0
:105874002CF072EF2CF0610028F4F6F461002CF4A3
:10588400F7F4000EF86E0800F5500009D8B44DEF97
:105894002CF04FEF2CF072EF2CF005500610D8B41A
:1058A40056EF2CF058EF2CF072EF2CF0610020F43E
:1058B400D9F4610024F4DAF4DF50076E610028F4AF
:1058C400F6F461002CF4F7F4000EF86E0800F550BD
:1058D4000718D8B470EF2CF072EF2CF028EF2CF0EE
:1058E400610020F4D9F4610024F4DAF4DF50076E87
:1058F400610028F4F6F461002CF4F7F4000EF86E5D
:105904000800F550075C016E026AD8A00206120076
:10591400C396000ED5EC33F001C5C6F502C5C7F534
:10592400720E136E880E146E080E156EBE0E166E71
:10593400C6C501F5C7C502F5036A046A000EEAECA0
:1059440028F001C50FF502C510F503C511F504C50E
:1059540012F5A0EC20F00FC528F510C529F511C5E6
:105964002AF512C52BF5000E2C6E000E2D6E340E8A
:105974002E6E430E2F6E40EC1EF028C5BEF529C5D1
:10598400BFF52AC5C0F52BC5C1F5250E0501B86FB5
:10599400260EB96FC6C5BAF5C7C5BBF518EC34F009
:1059A400C20E0501B86F050EB96F4A0EBA6F260E06
:1059B400BB6FC6C5BCF5C7C5BDF531EC32F0160EDC
:1059C4000501B86F260EB96FC20EBA6F050EBB6F14
:1059D40018EC34F0010E0501B86F260EB96FBEC580
:1059E400BAF5BFC5BBF5C0C5BCF5C1C5BDF518EC5E
:1059F40034F0C20E046E050E056E1DEC30F0C38645
:105A0400120021EE11F1070EDE6AE806FDE20950EC
:105A14000A100B100C100D100E100F101010D8B42B
:105A240016EF2DF018EF2DF06AEF2DF0010E196E20
:105A340026EF2DF0D89009360A360B360C360D3683
:105A44000E360F361036192A10AE2BEF2DF02DEF2F
:105A54002DF01CEF2DF0D890113612361336143673
:105A640015361636173618360950015C0A50025896
:105A74000B5003580C5004580D5005580E5006583E
:105A84000F50075810500858D8A04BEF2DF04DEF89
:105A94002DF05EEF2DF00950015E0A50025A0B50B2
:105AA400035A0C50045A0D50055A0E50065A0F5002
:105AB400075A1050085A1180D89010320F320E3203
:105AC4000D320C320B320A320932192E2DEF2DF021
:105AD40011C501F512C502F513C503F514C504F586
:105AE40015C505F516C506F517C507F518C508F556
:105AF400120005500610D8B482EF2DF084EF2DF07B
:105B04008DEF2DF005500610D8A48BEF2DF08DEFFE
:105B14002DF092EF2DF00350B7EC34F0E6EF2DF0BA
:105B240020EE04F00550D9260650DA22DE50DE10AD
:105B3400D8B49FEF2DF0A1EF2DF0BCEF2DF020EEA7
:105B440004F00550D9260650DA2210EE02F0055072
:105B5400E1260650E222DE50E65CE650800A0B6E37
:105B6400DE50800A0B58D8B0BAEF2DF0BCEF2DF000
:105B7400E6EF2DF020EE02F00550D9260650DA2289
:105B8400610078F307F5610074F308F5610014F41B
:105B9400D9F4610018F4DAF4610078F309F56100CE
:105BA40074F30AF507500924D96E08500A20DA6EF6
:105BB40061000CF4DFF420EE02F00550D926065003
:105BC400DA22DE2A000EDD22120009500A100B1020
:105BD4000C100D100E100F101010D8B4F4EF2DF09F
:105BE400F6EF2DF03EEF2EF0010E116E04EF2EF0C5
:105BF400D89009360A360B360C360D360E360F366B
:105C04001036112A10AE09EF2EF00BEF2EF0FAEF3A
:105C14002DF00950015C0A5002580B5003580C50E7
:105C240004580D5005580E5006580F500758105080
:105C34000858D8A020EF2EF022EF2EF032EF2EF0ED
:105C44000950015E0A50025A0B50035A0C50045A70
:105C54000D50055A0E50065A0F50075A1050085A44
:105C6400D89010320F320E320D320C320B320A320F
:105C74000932112E0BEF2EF001C501F502C502F514
:105C840003C503F504C504F505C505F506C506F504
:105C940007C507F508C508F512000501DAA155EF97
:105CA4002EF057EF2EF061EF2EF015C50CF516C54A
:105CB4000DF513C50EF514C50FF5CCEC32F018BE76
:105CC40066EF2EF068EF2EF06EEF2EF017C51CF580
:105CD40018C51DF572EF2EF0000E1D6E000E1C6E21
:105CE400000E1B6E000E1A6E84EF2EF0000E046E72
:105CF400200E036E13C505F514C506F57BEC2DF0D7
:105D04001A4A1B2A1C501A5C1B50800A196E1D501B
:105D1400800A1958D8A091EF2EF093EF2EF078EF67
:105D24002EF00501DAB199EF2EF09BEF2EF0A5EFDE
:105D34002EF015C50CF516C50DF513C50EF514C5D5
:105D44000FF5CCEC32F015C501F516C502F52DECB6
:105D540033F01C500124136E1D500220146E1200E7
:105D6400000E066E04BEBBEF2EF0B9EF2EF0C1EFAD
:105D74002EF0036C041ED8B0042A010E066E02BE77
:105D8400C8EF2EF0C6EF2EF0CEEF2EF0016C021EFF
:105D9400D8B0022A010E061A000E086E000E076E15
:105DA40003500410D8B4D9EF2EF0DBEF2EF003EF3C
:105DB4002FF0010E056EE3EF2EF0D8900336043673
:105DC400052A04AEE8EF2EF0EAEF2EF0DFEF2EF016
:105DD400D890073608360350015C04500258D8A006
:105DE400F6EF2EF0F8EF2EF0FDEF2EF00350015EEB
:105DF4000450025A0780D89004320332052EEAEF89
:105E04002EF00650D8B409EF2FF00BEF2FF00FEF60
:105E14002FF0076C081ED8B0082A07C501F508C57D
:105E240002F51200000EC26E000EC16E000EBE6EB0
:105E3400000EC36E000EBF6E000EC06E070ECA6E5B
:105E4400F60ECB6EC668EF0EC76EFB0EC86EC96841
:105E540004011869F30E106FEF0E086F070E206F20
:105E6400F60E286FDF0E006F000E196F000E296FFB
:105E7400000E216F000E096F000E016F000E116FEE
:105E8400000E0201896F000E886F000E876F000EEE
:105E9400866F000E0401226F000E2A6F000E026F3F
:105EA400000E0A6F000E126F000E1A6F03690B6961
:105EB40013691B69070E236F2B6904690C69146944
:105EC4001C690F0E246F2C69050E02017A6F200ED7
:105ED400136F2C0E296F130E726F1200000E066ED4
:105EE40002BE79EF2FF077EF2FF07FEF2FF0016CE8
:105EF400021ED8B0022A010E066E04BE86EF2FF0F1
:105F040084EF2FF08AEF2FF0036C041ED8B0042A1C
:105F140003500410D8B491EF2FF093EF2FF0B7EFA4
:105F24002FF0010E056E9BEF2FF0D8900336043648
:105F3400052A04AEA0EF2FF0A2EF2FF097EF2FF079
:105F44000350015C04500258D8A0ABEF2FF0ADEF22
:105F54002FF0B1EF2FF00350015E0450025AD89095
:105F640004320332052EA2EF2FF00650D8B4BDEF51
:105F74002FF0BFEF2FF0C3EF2FF0016C021ED8B04B
:105F8400022A01C501F502C502F51200000E011432
:105F9400096E000E02140A6E800E03140B6E7F0E3F
:105FA40004140C6E09500A100B100C10D8A4DDEF69
:105FB4002FF0DFEF2FF0E7EF2FF0000E016E000E51
:105FC400026E000E036E000E046E000E0514096EC0
:105FD400000E06140A6E800E07140B6E7F0E081452
:105FE4000C6E09500A100B100C10D8A4FCEF2FF003
:105FF400FEEF2FF006EF30F0000E056E000E066E79
:10600400000E076E000E086E055001180FE10650D1
:1060140002180CE10750031809E108500418D8B419
:1060240016EF30F018EF30F01BEF30F0D8901CEF83
:1060340030F0D8801200440E026E260E036E5EEC21
:1060440030F0030E076E8A0E066E560EE82EFED74B
:10605400062EFCD7072EFAD7340E026E260E036ED8
:106064005EEC30F0030E076E8A0E066E560EE82EB6
:10607400FED7062EFCD7072EFAD73D0E026E260E4B
:10608400036E5EEC30F004C502F505C503F55EEC65
:1060940030F03A0E026E260E036E5EEC30F01A0EED
:1060A400076E5E0E066E6E0EE82EFED7062EFCD729
:1060B400072EFAD700D0120081EF30F0EEEC33F067
:1060C4000009D8B468EF30F06AEF30F081EF30F0B7
:1060D400610008F4F6F461000CF4F7F4000EF86EB5
:1060E400250EF76403D00800F55005D0F6C4E9F492
:1060F400F7C4EAF4EF506EEC34F0024A032A61006C
:1061040008F4F6F461000CF4F7F4000EF86E250EB2
:10611400F76403D00800F55005D0F6C4E9F4F7C4D9
:10612400EAF4EF500009D8A49AEF30F09CEF30F075
:1061340060EF30F01200000E0201A56F000EA66F92
:10614400000EA76F000EA86F000EA96F000EAA6FB5
:10615400B00EAB6F800EAC6F000EAD6F670EAE6FFE
:10616400000EAF6F000EB06F000EB16F000EB26F75
:10617400000EB36F000E0601646F000E656F000E13
:10618400666FA2EC34F0000E0601646F000E656FBA
:10619400000E666F9BEC34F0000E0601646F000E77
:1061A400656F000E666FA9EC34F0000E0601006FF7
:1061B4001200000E0201F16F000EF36F000EF56F76
:1061C400B00EF76F800EF86F000EF96F670EFA6F5E
:1061D400000EFB6F000EFC6F000EFD6F000EFE6FD5
:1061E400000EFF6F000E0601646F000E656F000E57
:1061F400666F8DEC34F0000E0601646F000E656F5F
:10620400000E666F86EC34F0000E0601646F000E1B
:10621400656F000E666F94EC34F0000E0601016F9A
:106224001200B4C556F5B5C557F5000E0501D56F76
:10623400000ED46F31EF31F0B2C54CF5B3C54DF556
:10624400560E4E6E050E4F6EB6C550F5B7C551F5D8
:1062540060EC19F04C500501D4274D50D523610052
:1062640058F5F6F461005CF5F7F4000EF86E0800DA
:10627400F5500009D8A441EF31F043EF31F01EEF9F
:1062840031F0D4C5B2F5D5C5B3F5120003C507F591
:1062940004C508F501C509F502C50AF50750056EE0
:1062A4000850066E074A082A610014F4F6F46100E7
:1062B40018F4F7F4000EF86E610024F4D9F46100C8
:1062C40028F4DAF4094A0A2A250EF76403D00800F0
:1062D400F55005D0F6C4E9F4F7C4EAF4EF50DF6EE4
:1062E400DF50D8A478EF31F07AEF31F050EF31F08D
:1062F4001200BF0E096EFF0E0A6E07C50BF508C526
:106304000CF509500B260A500C220C500AE11A0E07
:106314000B5CD8A090EF31F093EF31F0010E94EFC5
:1063240031F0000E0D6E0E6A0D500E10D8B49DEFB4
:1063340031F09FEF31F0A6EF31F0200E0710076E19
:106344000850086EAAEF31F007C507F508C508F52F
:1063540012009F0E096EFF0E0A6E07C50BF508C5E5
:106364000CF509500B260A500C220C500AE11A0EA7
:106374000B5CD8A0C0EF31F0C3EF31F0010EC4EFD5
:1063840031F0000E0D6E0E6A0D500E10D8B4CDEF24
:1063940031F0CFEF31F0D5EF31F05F0E0714076E17
:1063A400086AD9EF31F007C507F508C508F51200EA
:1063B400000E0301D96F000EDA6F000EDB6F000EC2
:1063C400DC6F000EDF6F000EE06F000EE56F000E55
:1063D400E76F000EEC6F000EEE6F000EEF6F000E15
:1063E400F06F000EF16F000EF26F000EF46F100EDE
:1063F400F56F000EF66F000EF76F000EF86F000ECB
:10640400F96F030EFA6F840EF36F12006100D8F374
:10641400C8F56100DCF3C9F56100E0F3CAF5610079
:10642400D4F3CBF5A1AE19EF32F01BEF32F024EF29
:1064340032F0B1AE20EF32F022EF32F024EF32F03E
:10644400EEEC32F061002CF7F5F4610028F7F8F473
:10645400610024F7F7F4610020F7F6F41100BC0E94
:10646400586E050E596EB8C55AF5B9C55BF5000EE0
:106474005D6E000E5C6E000E5F6E000E5E6E5A0E58
:106484000501B26F050EB36FBAC5B4F5BBC5B5F55A
:10649400580EB66F050EB76F13EC31F05C50050162
:1064A400B825D96E5D50B921DA6E000EDF6E120088
:1064B400010E076E200E01180210D8B464EF32F0FA
:1064C40066EF32F07FEF32F0F70E036EFF0E046ECC
:1064D40001C505F502C506F503500526045006223C
:1064E400065009E1050E055CD8A07BEF32F07DEF84
:1064F40032F07FEF32F0000E076E07C501F5026A35
:106504001200780EF66E690EF76E000EF86E01EE4C
:10651400DCF110EE07F00900F5C4EEF4E550E150AB
:10652400FAE101EE00F2520EEE6AE806FDE101EE38
:10653400CCF1100EEE6AE806FDE10401080E5D6F71
:10654400000E5E6F000E5F6F00013EEF34F0000E30
:106554003C1A000E3D1A000E3E1A800E3F1A38C532
:1065640028F539C529F53AC52AF53BC52BF53CC5AF
:106574002CF53DC52DF53EC52EF53FC52FF540EC58
:106584001EF028C538F529C539F52AC53AF52BC5B5
:106594003BF51200000E126E000E116EDDEF32F0AC
:1065A40010C503F5046A0EC505F50FC506F57BECA9
:1065B4002DF0114A122A11500C24D96E12500D20BC
:1065C400DA6EDF50106E1050D8A4EBEF32F0EDEF1E
:1065D40032F0D2EF32F01200B19E0501E75103010F
:1065E400196F610098F718F30501E351E411E511FF
:1065F400D8B4FFEF32F001EF33F00EEF33F002D8EE
:106604000EEF33F00500FA6EE351FD6EE451FE6EB9
:10661400E551FF6EFA50120012009F0E036EFF0E3A
:10662400046E200E0110056E000E0210066E03505B
:1066340005260450062206500AE11A0E055CD8A06D
:1066440026EF33F029EF33F0010E2AEF33F0000E7A
:10665400016E026A120001C503F502C504F535EFA7
:1066640033F0014A022A610004F4D9F4610008F409
:10667400DAF4DF50D8A441EF33F043EF33F033EFD3
:1066840033F00350015C016E04500258026E120094
:106694009F0E036EFF0E046E01C505F502C506F5D7
:1066A400035005260450062206500AE11A0E055C22
:1066B400D8A05FEF33F062EF33F0010E63EF33F0F5
:1066C400000E016E026A1200BF0E036EFF0E046E0E
:1066D40001C505F502C506F503500526045006223A
:1066E40006500AE11A0E055CD8A07BEF33F07EEF6A
:1066F40033F0010E7FEF33F0000E016E026A1200D8
:106704000150021003100410D8B48BEF33F08DEF56
:1067140033F095EF33F0000E011A000E021A000E4A
:10672400031A800E041A01C501F502C502F503C55A
:1067340003F504C504F51200D00E036EFF0E046EBB
:1067440001C505F502C506F50350052604500622C9
:1067540006500AE10A0E055CD8A0B3EF33F0B6EF99
:1067640033F0010EB7EF33F0000E016E026A12002F
:106774006E0E03011B6FFC0E196F2F0E186FFC0EAB
:106784000501E76F2F0EE66FB19EA18E840E060100
:10679400646F690E656F000E666FB0EC34F0990E8D
:1067A40003011A6F1200056E610014F4ECF3030187
:1067B400F38FF39DF381F3B1E2EF33F0E4EF33F0C1
:1067C400DDEF33F0EB51046E036AEA510324016EEA
:1067D400000E0420026E1200000E016EB2A2F5EF4C
:1067E40033F0F7EF33F001EF34F00201ABABFDEF20
:1067F40033F0FFEF33F001EF34F0010E016E01507E
:106804001200015003026100CCF305F56100D0F3DE
:1068140006F501500402F350062602500302F35019
:10682400062605C501F506C502F51200BA0E586E16
:10683400050E596E000E0501B26F000EB36FB8C598
:10684400B4F5B9C5B5F5580EB66F050EB76F13ECB0
:1068540031F01200000E0001606F000E616F000E37
:10686400636F000E646F000E656F000E666F000E9E
:10687400676F000E686F12004FEC34F0140E0601BF
:10688400646F590E656F000E666FB0EC34F0D68EEF
:10689400C3864BEF34F00DEF00F0C0EC34F02CEC79
:1068A40034F014EC2FF060EC34F0DAEC31F0BAECA4
:1068B40033F09DEC30F0DBEC30F01200620E00019E
:1068C400AD6F000EAF6F000EB36F050EB16F000E0B
:1068D400B06F000EAC6F1200016EB2A274EF34F010
:1068E40076EF34F06FEF34F0610004F4A3F2120099
:1068F400016EBBA280EF34F082EF34F07BEF34F012
:10690400610004F4EFF2120064C65EF665C65FF639
:1069140066C660F6120064C661F665C662F666C6AF
:1069240063F6120064C65BF665C65CF666C65DF681
:10693400120064C655F665C656F666C657F61200CA
:1069440064C658F665C659F666C65AF6120064C699
:1069540052F665C653F666C654F6120064C6E3F5ED
:1069640065C6E4F566C6E5F51200026E02507AECDF
:0B69740034F01200286E756C6C2900D6
:06698000D69A120012007D
:020000040020DA
:10000000FF0FFF0FFF0FFF0FFF0FFF0FFF0FFF0F80
:10001000FF0FFF0FFF0FFF0FFF0FFF0FFF0FFF0F70
:020000040030CA
:0A000000ECFFF7FF9FFFFFFFFFFF7B
:00000001FF
